:100000000C9434000C943E000C943E000C943E0082
:100010000C943E000C943E000C943E000C943E0068
:100020000C943E000C943E000C943E000C943E0058
:100030000C943E000C943E000C943E000C943E0048
:100040000C943E000C943E000C943E000C943E0038
:100050000C943E000C943E000C943E000C943E0028
:100060000C943E000C943E0011241FBECFEFD8E04C
:10007000DEBFCDBF0E9453000C945A000C940000C8
:100080008FEF84B915B80895FC01808190E298271C
:1000900090832FEF81EE94E0215080409040E1F773
:1000A00000C0000008950E94400085E290E00E9498
:0800B0004400FBCFF894FFCFE0
:00000001FF
