:100000000C9434000C943E000C943E000C943E0082
:100010000C943E000C943E000C943E000C943E0068
:100020000C943E000C943E000C943E000C943E0058
:100030000C943E000C943E000C943E000C943E0048
:100040000C943E000C943E000C943E000C943E0038
:100050000C943E000C943E000C943E000C943E0028
:100060000C943E000C943E0011241FBECFEFD8E04C
:10007000DEBFCDBF0E9444000C945C000C940000D5
:1000800080E48AB91BB808950E9440005E9A2FEF61
:1000900080E792E0215080409040E1F700C00000EE
:1000A0008BB11BB82FEF80E792E021508040904049
:0C00B000E1F700C00000EACFF894FFCF99
:00000001FF
